:0408000002088B322D
:01080B0032BA
:0108130032B2
:01081B0032AA
:03082300021015AB
:01082B00329A
:03083300020B872E
:01083B00328A
:010843003282
:01084B00327A
:0308530002110C83
:01085B00326A
:010863003262
:01086B00325A
:010873003252
:01087B00324A
:0308830002108FD1
:0708E4007522007523007569
:0608EB00240075250075D4
:0608F1004900754A00C237
:0108F7000000
:0308F8000208866D
:0508860012117E80FE4E
:0E08FB0075A91075B90075B28353AFDF75B9DA
:05090900807A147B0060
:05090E001ABAFF011BF5
:07091300EA4B70F743B9C085
:0C091A00E5B930E5FB75A90275B2832237
:0E09260075A91075B90075B28375B69075B9D4
:05093400807A147B0035
:050939001ABAFF011BCA
:07093E00EA4B70F743B9C05A
:0E094500E5B930E5FB75A90375B28343AF2019
:010953002281
:0E09540075A40275A50375A70175D4C075D5ED
:0E096200FF75D63F75E10375E24075E3012293
:0B09700075A13075F805D2AED2BE2292
:0E097B00759810D284D285758920758E087506
:0E0989008D30D28ED29CC2BCD2AC900044E421
:08099700F0900045F0C2862239
:0E099F00D2A6D2A775D21075AC4375B43C75C4
:0E09AD00B5F6900066E4F0900067F043E702B4
:0109BB002219
:0D09BC0075D10E75BA1F75E8C243E608221A
:0E09C90075C800538E0F75CA8075CB7B75CC38
:0709D700FF75CDFFD2CA221B
:0E09DE0075FB2F75FCF875E94775EAF475EBAB
:0E09EC005F75ECF053D9BF75D90075DAC2758E
:0E09FA00DBC275DCC275DDC275DEC275F9BFE9
:070A080075FA6375D8402266
:0E0A0F00C2AF75B7A575B7F1438F02438F01D3
:080A1D00E4F0538FFCD2AF227C
:0A0A2500AA82AB83C2AFAC08AD0992
:060A2F00AE0AE4F50CF52F
:010A35000DB3
:090A3600A90B7F00C3E50C99E552
:0B0A3F000D9F50338C828D838EF012CF
:0E0A4A001422FFA3AC82AD8375B7A575B7F17A
:0E0A5800438F01538FFD8A828B83EFF0A3AA98
:0A0A660082AB83538FFE050CE4B54C
:060A70000CC4050D80C05E
:030A7600D2AF22DA
:0A0A7900AA82AB83ACF0AD08AE0911
:050A8300E4F50BF50C89
:090A8800A90A7F00C3E50B99E502
:0C0A91000C9F50258D828E83E493FFA300
:0E0A9D00AD82AE838A828B838CF0EF12140937
:0A0AAB00A3AA82AB83050BE4B50B90
:050AB500D2050C80CE0B
:010ABA002219
:0E0ABB0075A91075B90075B28353AFDF7A6468
:0E0AC900DAFEE4F5A8F5B8F5D0F582F583FF66
:0E0AD700FEFDFCFBFAF9F87581070200002213
:0E0AE50075D8009000B8E0FAE4C40354F8CAD3
:0E0AF300C403CA6ACA54F8CA6AFB744B2AF5D7
:0E0B0100FB74F03BF5FC9000B9E0FAE4C4038D
:0E0B0F0054F8CAC403CA6ACA54F8CA6AFB740E
:0E0B1D004B2AF5E974F03BF5EA9000BAE0FAD5
:0E0B2B00E4C40354F8CAC403CA6ACA54F8CA20
:0D0B39006AFB744B2AF5EB74F03BF5EC9071
:0E0B460000BBE0FAE4C40354F8CAC403CA6A50
:0E0B5400CA54F8CA6AFB744B2AF5ED74F03BE4
:0E0B6200F5EE9000BCE0FAE4C40354F8CAC4F7
:0E0B700003CA6ACA54F8CA6AFB744B2AF5FD20
:090B7E0074F03BF5FE75D840222D
:0C0B8700C021C0E0C0F0C082C083C002EA
:0E0B9300C003C004C005C006C007C000C001FA
:0B0BA100C0D075D01020FF03020FEF42
:0B0BAC00AAA3C2FFAB22BB00028063C3
:060BB700BB0103020CAEBD
:060BBD00BB0203020F7FE2
:060BC300BB0503020D5703
:060BC900BB1103020CB990
:060BCF00BB1203020CB989
:060BD500BB2003020D1D10
:060BDB00BB8103020D6B5B
:060BE100BB8203020EFDC1
:060BE700BB8303020EAF08
:060BED00BB8503020E5956
:060BF300BB8603020E3375
:060BF900BB9103020D8216
:060BFF00BB9203020D820F
:060C0500BB9F03020FE497
:060C0B00BBA103020E1262
:060C1100BBB003020E7DE2
:030C1700020FECDD
:060C1A00EA7003020FEF77
:060C20008A22752401ABDD
:060C260022BB0102801751
:050C2C00BB040280750D
:050C3100BB110280135D
:050C3600BB1202800E5C
:050C3B00BB9F02806078
:030C4000020FEFB1
:060C430075A301020FEF92
:0C0C4900740F552214FB75F022A4FC244B
:0A0C550044FDE43400FE8D828E831E
:0A0C5F00A3E0F523EC2444F582E441
:0A0C69003400F583E0FDC39523502D
:0A0C730015EC2444F582E43400F58A
:0C0C7D0083E0FDE523C39DF5A3020FEF0B
:0A0C8900EC2444F582E43400F58306
:0B0C9300E0FC7420C39C2523F5A302A5
:020C9E000FEF56
:060CA00075A301020FEF35
:060CA600D20075220002DD
:020CAC000FEF48
:090CAE008525A3C2B075220002E5
:020CB7000FEF3D
:0C0CB900740F552214FB75F022A4FC24DB
:0A0CC50044FDE43400FE74022DFD2E
:0A0CCF00E43EFEEC2444F582E43418
:0C0CD90000F583E02DF582E43EF583E099
:0A0CE500F5A3EC2444FDE43400FE06
:0A0CEF00EC2444F582E43400F583A0
:0C0CF900E004541FFF8D828E83F0EC2479
:0A0D050044F582E43400F583E0FCBD
:050D0F00B52302800382
:030D1400020FEFDC
:060D1700752200020FEF3F
:080D1D007401B524188A4AE5AF
:090D25004A25E02488F582E4343B
:0C0D2E0000F583E0FCA3E0FD8DA380181D
:0A0D3A00E54A25E02488F582E43440
:0C0D440000F583E0FCA3E07D008CA375AB
:020D500022007F
:050D52000524020FEF73
:0E0D57008A8275D0001212DE75D0108582A33C
:060D6500752200020FEFF1
:080D6B007401B524078A230579
:040D730024020FEF58
:090D7700EAF4FC52257522000289
:020D80000FEF73
:0A0D8200740F552214FB7401B52410
:0C0D8C0025EB75F022A4FC2400F582E4A5
:0A0D98003400F583EAF0EC2400FCBF
:0C0DA200E43400FD8C828D83A3E4F00596
:040DAE0024020FEF1D
:0B0DB200EB75F022A4FC2400FDE434EB
:0A0DBD0000FE74022DFDE43EFEE589
:0C0DC7002424FE2DF582E43EF583EAF0C2
:090DD3000524EC2400F582E4344F
:0C0DDC0000F583E0FC7D0074022CFCE4B8
:0C0DE8003DFDAE247F00EEB51406EFB513
:040DF4001502800361
:030DF800020FEFF8
:0B0DFB00EB7008900002E0F599800604
:060E0600900024E0F5D38A
:060E0C00752200020FEF49
:090E1200E5241424A8F582E4345F
:0A0E1B0000F583EAF07410B5240915
:070E2500754900752200026F
:020E2C000FEFC6
:050E2E000524020FEF96
:080E33007401B5240505240239
:020E3B000FEFB7
:080E3D00EA30E004C2868002E5
:020E4500D28653
:090E4700EA30E10575D840800392
:030E500075D80052
:060E5300752200020FEF02
:070E5900AB24BB010280186D
:070E6000BB02048A2380118C
:090E67008A0885238275D000126F
:080E700011B975D010752200C4
:050E78000524020FEF4C
:080E7D007401B52405052402EF
:020E85000FEF6D
:080E8700E52424B6F582E434F1
:0A0E8F0000F583EAF005247406B5AF
:040E990024028003AC
:030E9D00020FEF52
:0C0EA00075D000120AE575D01075220014
:030EAC00020FEF43
:070EAF00AB24BB010280052A
:050EB600BB02128004E4
:040EBB008A238039CD
:0A0EBF008A138B147B008B278C280C
:020EC900802D7A
:0A0ECB008A137C00E5274213E52896
:090ED50042148B278C2874F825C7
:070EDE0028500F85278285D3
:0B0EE500288375D000120A0F75D01092
:080EF000752200432501D2B078
:050EF8000524020FEFCC
:070EFD00AB24BB0102800AD7
:050F0400BB0202800C9D
:050F0900BB032780136B
:070F0E00EA24FEF5268066CF
:0A0F15008A138B147B008B278C28B5
:020F1F00805AF6
:0A0F21008A137C00E5274213E5283F
:080F2B0042148B278C2880483A
:080F3300E5242425F8A612AB09
:0C0F3B00247C00EB24FDFBEC34FFFCAD3B
:0C0F4700267E00EBB5152DECB5162974C4
:090F5300F82528501B8527828532
:040F5C002883750869
:050F6000297509007570
:040F65000A40852693
:0A0F69000B75D000120A2575D01098
:080F7300752200432501D2B0F4
:040F7B000524807059
:070F7F00AB24BB0102800559
:050F8600BB0212800413
:040F8B008A268051E1
:0A0F8F008A138B147B008B278C283B
:020F9900804591
:0A0F9B007B00E5274212E52842130F
:050FA5008A278B28AA39
:040FAA0027AB28AC9D
:0C0FAE00247D00EC24FDFCED34FFFDEC84
:0C0FBA002AF582ED3BF583E493F5A3AA31
:0C0FC600247B00EA24FEFAEB34FFFBACB5
:0C0FD200267D00EAB51407EBB515037589
:020FDE002200EF
:040FE0000524800B59
:080FE40075A3AC752200800327
:030FEC007522006B
:030FEF0010FE00F1
:030FF20010FD00EF
:030FF50010FC00ED
:0E0FF800D0D0D001D000D007D006D005D00454
:0D100600D003D002D083D082D0F0D0E0D053
:02101300213288
:0E101500C0E0C082C083C002C003C0D075D04E
:061023000010980280217C
:0A102900900045E02446F582E4340F
:0C10330000F583E599F0900045E00454BE
:0B103F001FFA900045F0432504D2B0DA
:05104A00109902803343
:0E104F00900001E0FA0A900001EAF0E0FA9049
:0E105D000000E0FBEAB5030C900000E4F04355
:06106B002502D2B0801145
:0B107100900001E0FA2402F582E43454
:06107C0000F583E0F59988
:0D108200D0D0D003D002D083D082D0E03295
:0E108F00C0E0C082C083C002C003C0D075D0D4
:0E109D0000E5D230E02653D2FE900067E0243A
:0A10AB0068F582E43400F583E5D314
:0E10B500F0900067E004541FFA900067F043CB
:0610C3002510D2B08036BA
:0E10C90053D2FD900023E0FA0A900023EAF0D3
:0E10D700E0FA900022E0FBEAB5030C90002244
:0910E500E4F0432508D2B08011AB
:0B10EE00900023E0FA2424F582E43493
:0610F90000F583E0F5D3D1
:0D10FF00D0D0D003D002D083D082D0E03218
:0E110C00C0E0C082C083C002C003C004C005A2
:0A111A00C0D075D000E54925E0249F
:0A11240088F582E43400F583AABECA
:0E112E008A037A00ACBD7D00EC4202ED420364
:0A113C00EAF0A3EBF005497410B5CA
:0411460049028010CA
:08114A00E54924A8F582E43414
:0811520000F583E0FABAFF0387
:03115A00754900D4
:0A115D00C2EDE54924A8F582E43450
:0C11670000F583E0F5BBD0D0D005D0042B
:0B117300D003D002D083D082D0E03245
:0C117E0053D9BFC2D112095412097012DB
:0E118A00097B1209BC900083E493FABA020CB0
:0C11980012092612099FC290D291800714
:0711A4001208FBD290D2916A
:0611AB00D2AFC2B0C20089
:0811B1003000FD120ABB80F8BA
:0811B900AA82BA800302126A47
:0611C100BA8A0302126E5F
:0611C700BA8B0302127254
:0611CD00BA8C0302127649
:0611D300BA8D0302127A3E
:0611D900BA8E0302127E33
:0611DF00BA900302128227
:0611E500BAA0030212860D
:0611EB00BAA40302128AFF
:0611F100BAA50302128EF4
:0611F700BAA603021292E9
:0611FD00BAA703021296DE
:06120300BAAC0302129ACE
:06120900BAB00302129EC0
:06120F00BAB4030212A2B2
:06121500BAB5030212A6A7
:06121B00BAC8030212AA8A
:06122100BACA030212AE7E
:06122700BACB030212B273
:06122D00BACC030212B668
:06123300BACD030212BA5D
:06123900BAD4030212BE4C
:06123F00BAD5030212C241
:06124500BAD6030212C636
:06124B00BADF030212CA23
:06125100BAF1030212CE07
:06125700BAF2030212D2FC
:06125D00BAF3030212D6F1
:06126300BAF4030212DAE6
:011269002262
:04126A008508802251
:04126E0085088A2243
:0412720085088B223E
:0412760085088C2239
:04127A0085088D2234
:04127E0085088E222F
:041282008508902229
:041286008508A02215
:04128A008508A4220D
:04128E008508A52208
:041292008508A62203
:041296008508A722FE
:04129A008508AC22F5
:04129E008508B022ED
:0412A2008508B422E5
:0412A6008508B522E0
:0412AA008508C822C9
:0412AE008508CA22C3
:0412B2008508CB22BE
:0412B6008508CC22B9
:0412BA008508CD22B4
:0412BE008508D422A9
:0412C2008508D522A4
:0412C6008508D6229F
:0412CA008508DF2292
:0412CE008508F1227C
:0412D2008508F22277
:0412D6008508F32272
:0412DA008508F4226D
:0812DE00AA82BA8003021391F9
:0612E600BA8A0302139511
:0612EC00BA8B0302139906
:0612F200BA8C0302139DFB
:0612F800BA8D030213A1F0
:0612FE00BA8E030213A5E5
:06130400BA90030213A9D8
:06130A00BAA0030213ADBE
:06131000BAA4030213B1B0
:06131600BAA5030213B5A5
:06131C00BAA6030213B99A
:06132200BAA7030213BD8F
:06132800BAAC030213C180
:06132E00BAB0030213C572
:06133400BAB4030213C964
:06133A00BAB5030213CD59
:06134000BAC8030213D13C
:06134600BACA030213D530
:06134C00BACB030213D925
:06135200BACC030213DD1A
:06135800BACD030213E10F
:06135E00BAD4030213E5FE
:06136400BAD5030213E9F3
:06136A00BAD6030213EDE8
:06137000BADF030213F1D5
:06137600BAF1030213F5B9
:06137C00BAF2030213F9AE
:06138200BAF3030213FDA3
:06138800BAF40302140197
:03138E0002140541
:0413910085808222AF
:04139500858A8222A1
:04139900858B82229C
:04139D00858C822297
:0413A100858D822292
:0413A500858E82228D
:0413A9008590822287
:0413AD0085A0822273
:0413B10085A482226B
:0413B50085A5822266
:0413B90085A6822261
:0413BD0085A782225C
:0413C10085AC822253
:0413C50085B082224B
:0413C90085B4822243
:0413CD0085B582223E
:0413D10085C8822227
:0413D50085CA822221
:0413D90085CB82221C
:0413DD0085CC822217
:0413E10085CD822212
:0413E50085D4822207
:0413E90085D5822202
:0413ED0085D68222FD
:0413F10085DF8222F0
:0413F50085F18222DA
:0413F90085F28222D5
:0413FD0085F38222D0
:0414010085F48222CA
:0414050075820022CA
:0608BA00E478FFF6D8FD12
:080898007900E94400601B7ABD
:0508A0000090144278F5
:0308A500BD75AA74
:0A08A80000E493F2A308B800020573
:0808B200AAD9F4DAF275AAFFDD
:0E14090020F71030F6118883A88220F507F630
:05141700A883758300AD
:01141C0022AD
:03141D00F280F763
:02142000F022B8
:0808C0007800E84400600A79A9
:0308C8000075AA0E
:0608CB0000E4F309D8FC73
:0808D10078BDE84400600C79D9
:0B08D90001900000E4F0A3D8FCD9FA65
:03088B0075814A2A
:0A088E0012143EE5826003020886A2
:0E14220020F71430F6148883A88220F507E620
:06143000A8837583002271
:03143600E280F75A
:03143900E4932217
:02143C00E022AC
:04143E007582002291
:00000001FF
