:0600000002008B020585E1
:03000B0002059259
:0300130002059F44
:03001B000205AC2F
:030023000205B91A
:03002B000205C902
:030033000205D6ED
:03003B000205E6D5
:030043000205F3C0
:03004B00020600AA
:0300530002060D95
:03005B0002061A80
:030063000206276B
:03006B0002063456
:0300730002064141
:03007B0002064E2C
:0300830002065B17
:0700E4007522007523007571
:0600EB002400752500C28F
:0100F100000E
:0300F20002008683
:0500860012066880FE77
:0700F50075B9807A147B004D
:0500FC001ABAFF011B10
:07010100EA4B70F743B9C09F
:0C010800E5B930E5FB75A90275B2832251
:0E01140075A40275A50375F3FC75A70175F4BB
:0B0122000175D60375E10375E2402271
:0B012D0075A13075F805D2AED2BE22DD
:0E013800759810D284D285758920758E087551
:0E0146008D98D28ED29CD2BCD2AC900022E416
:08015400F0900023F0C28622A6
:0E015C00C2AF75B7A575B7F1438F02438F018F
:08016A00E4F0538FFCD2AF2238
:0E017200AA82AB83C2AF53AFFE438F01538FFF
:06018000FDAC08AD09AE64
:050186000AE4F50CF590
:01018B000D66
:09018C00A90B7F00C3E50C99E505
:0B0195000D9F502A8C828D838EF0128B
:0E01A00006A4FFA3AC82AD8375B7A575B7F1B9
:0C01AE008A828B83EFF0A3AA82AB83054A
:0601BA000CE4B50CCD05BC
:0301C0000D80C9E6
:0601C300538FFED2AF22B3
:0A01C900AA82AB83ACF0AD08AE09CA
:0501D300E4F50BF50C42
:0901D800A90A7F00C3E50B99E5BB
:0C01E1000C9F50258D828E83E493FFA3B9
:0E01ED00AD82AE838A828B838CF0EF12068B7C
:0A01FB00A3AA82AB83050BE4B50B49
:05020500D2050C80CEC3
:01020A0022D1
:0E020B00E4F5A8F5B8F5D0F582F583FFFEFD09
:0C021900FCFBFAF9F875810702080022CE
:0C022500C021C0E0C0F0C082C083C00255
:0E023100C003C004C005C006C007C000C00165
:0B023F00C0D075D01020FF030204E5C2
:0B024A00AAA3C2FFAB22BB0002803958
:06025500BB01030202FFE1
:06025B00BB020302046D6A
:06026100BB07030204DAF2
:06026700BB110302030AB3
:06026D00BB81030203380F
:06027300BB82030203EB55
:06027900BB830302039D9C
:06027F00BB910302034FD6
:06028500BB9F030204D23E
:03028B000204E288
:06028E00EA70030204E522
:060294008A22752401AB73
:06029A0022BB01028017E7
:0502A000BB04028052C6
:0502A500BB07028047C9
:0502AA00BB1102800EF3
:0502AF00BB9F02803737
:0302B4000204E55C
:0602B70075A3010204E53D
:0702BD00900023E0F52390FF
:0A02C4000022E0FBC39523500E90CA
:0B02CE000022E0FBE523C39BF5A30228
:0202D90004E53A
:0C02DB00900022E0FB7420C39B2523F55B
:0402E700A30204E585
:0602EB0075A3010204E509
:0602F10075A3010204E503
:0602F700D2007522000296
:0202FD0004E516
:0902FF008525A3C2B0752200029E
:0203080004E50A
:0A030A00900022E02424F582E43480
:0C03140000F583E0F5A3900022E0045403
:0B0320001F900022F0900022E0FBB5CF
:04032B002302800326
:03032F000204E5E0
:060332007522000204E543
:080338007401B524078A2305B6
:04034000240204E5AA
:09034400EAF4FB522575220002C7
:02034D0004E5C5
:0B034F007401B5240F900000EAF0904C
:07035A000001E4F00524029C
:0203610004E5B1
:08036300E5242400F582E434D6
:08036B0000F583EAF00524907F
:0E0373000000E0FB7C0074022BFBE43CFCADC0
:0C038100247E00EDB51306EEB5140280DA
:01038D00036C
:03038E000204E581
:0A039100900002E0F59975220002C9
:02039B0004E577
:07039D00AB24BB0102800547
:0503A400BB0212800401
:0403A9008A238039EA
:0A03AD008A138B147B008B278C2829
:0203B700802D97
:0A03B9008A137C00E5274213E528B3
:0903C30042148B278C2874F825E4
:0703CC0028500F85278285F0
:0B03D300288375D00012015C75D0106B
:0803DE00752200432501D2B095
:0503E60005240204E5FE
:0703EB00AB24BB0102800AF4
:0503F200BB0202800CBB
:0503F700BB0327801389
:0703FC00EA24FEF5268066ED
:0A0403008A138B147B008B278C28D2
:02040D00805A13
:0A040F008A137C00E5274213E5285C
:0804190042148B278C28804857
:08042100E5242425F8A612AB26
:0C042900247C00EB24FDFBEC34FFFCAD58
:0C043500267E00EBB5152DECB5162974E1
:09044100F82528501B852782854F
:04044A002883750886
:05044E0029750900758D
:040453000A408526B0
:0A0457000B75D00012017275D01071
:08046100752200432501D2B011
:04046900052480786E
:07046D00AB24BB0102800576
:05047400BB0212800430
:040479008A268051FE
:0A047D008A138B147B008B278C2858
:020487008045AE
:0A0489007B00E5274212E52842132C
:050493008A278B28AA56
:0404980027AB28ACBA
:0C049C00247D00EC24FDFCED34FFFDECA1
:0C04A8002AF582ED3BF583E493F5A3AA4E
:0C04B400247B00EA24FEFAEB34FFFBACD2
:0C04C000267D00EAB51407EBB5150375A6
:0204CC0022000C
:0404CE00052480136E
:0804D20075A3AB752200800B3D
:0804DA0075A3027522008003E6
:0304E20075220080
:0304E50010FE0006
:0304E80010FD0004
:0304EB0010FC0002
:0E04EE00D0D0D001D000D007D006D005D00469
:0D04FC00D003D002D083D082D0F0D0E0D069
:0205090021329D
:0E050B00C0E0C082C083C002C003C0D075D063
:0605190000109802802191
:0A051F00900023E02424F582E43468
:0C05290000F583E599F0900023E00454F5
:0B0535001FFA900023F0432504D2B011
:05054000109902803358
:0E054500900001E0FA0A900001EAF0E0FA905E
:0E0553000000E0FBEAB5030C900000E4F0436A
:060561002502D2B080115A
:0B056700900001E0FA2402F582E43469
:0605720000F583E0F5999D
:0D057800D0D0D003D002D083D082D0E032AA
:08058500C0D030D103D0D03208
:05058D00D0D0020803BC
:08059200C0D030D103D0D032FB
:05059A00D0D002080BA7
:08059F00C0D030D103D0D032EE
:0505A700D0D002081392
:0805AC00C0D030D103D0D032E1
:0505B400D0D002081B7D
:0B05B900C0D030D106D0D012050B32AC
:0505C400D0D002082365
:0805C900C0D030D103D0D032C4
:0505D100D0D002082B50
:0B05D600C0D030D106D0D01202253278
:0505E100D0D002083338
:0805E600C0D030D103D0D032A7
:0505EE00D0D002083B23
:0805F300C0D030D103D0D0329A
:0505FB00D0D00208430E
:08060000C0D030D103D0D0328C
:05060800D0D002084BF8
:08060D00C0D030D103D0D0327F
:05061500D0D0020853E3
:08061A00C0D030D103D0D03272
:05062200D0D002085BCE
:08062700C0D030D103D0D03265
:05062F00D0D0020863B9
:08063400C0D030D103D0D03258
:05063C00D0D002086BA4
:08064100C0D030D103D0D0324B
:05064900D0D00208738F
:08064E00C0D030D103D0D0323E
:05065600D0D002087B7A
:08065B00C0D030D103D0D03231
:05066300D0D002088365
:0C06680053D9BFD2D11201141200F512B8
:0E067400012D120138D2AFD290C291C2B0C295
:010682000077
:080683003000FD12020B80F8AB
:0600BA00E478FFF6D8FD1A
:080098007900E94400601B7AC5
:0500A000009006C47889
:0300A5004475AAF5
:0A00A80000E493F2A308B80002057B
:0800B200AAD9F4DAF275AAFFE5
:0E068B0020F71030F6118883A88220F507F6BC
:05069900A88375830039
:01069E002239
:03069F00F280F7EF
:0206A200F02244
:0800C0007800E84400600A79B1
:0300C8000075AA16
:0600CB0000E4F309D8FC7B
:0800D1007844E84400600C795A
:0B00D90001900000E4F0A3D8FCD9FA6D
:03008B0075814834
:0A008E001206C0E58260030200863E
:0E06A40020F71430F6148883A88220F507E6AC
:0606B200A88375830022FD
:0306B800E280F7E6
:0306BB00E49322A3
:0206BE00E02238
:0406C000758200221D
:00000001FF
